{
  "contractName": "DemoContract",
  "abi": [
    {
      "inputs": [
        {
          "internalType": "address payable",
          "name": "_pool",
          "type": "address"
        }
      ],
      "stateMutability": "payable",
      "type": "constructor",
      "payable": true
    },
    {
      "inputs": [],
      "name": "BdollarInterfaceInstance",
      "outputs": [
        {
          "internalType": "contract BdollarInterface",
          "name": "",
          "type": "address"
        }
      ],
      "stateMutability": "view",
      "type": "function",
      "constant": true
    },
    {
      "inputs": [],
      "name": "PoolInstance",
      "outputs": [
        {
          "internalType": "contract POOL",
          "name": "",
          "type": "address"
        }
      ],
      "stateMutability": "view",
      "type": "function",
      "constant": true
    },
    {
      "inputs": [],
      "name": "ShareRewardPoolInstance",
      "outputs": [
        {
          "internalType": "contract ShareRewardPool",
          "name": "",
          "type": "address"
        }
      ],
      "stateMutability": "view",
      "type": "function",
      "constant": true
    },
    {
      "inputs": [
        {
          "internalType": "address",
          "name": "admin",
          "type": "address"
        }
      ],
      "name": "addAdmin",
      "outputs": [],
      "stateMutability": "nonpayable",
      "type": "function"
    },
    {
      "inputs": [
        {
          "internalType": "address",
          "name": "",
          "type": "address"
        }
      ],
      "name": "admins",
      "outputs": [
        {
          "internalType": "bool",
          "name": "",
          "type": "bool"
        }
      ],
      "stateMutability": "view",
      "type": "function",
      "constant": true
    },
    {
      "inputs": [
        {
          "internalType": "address",
          "name": "check",
          "type": "address"
        }
      ],
      "name": "checkadmin",
      "outputs": [
        {
          "internalType": "bool",
          "name": "",
          "type": "bool"
        }
      ],
      "stateMutability": "view",
      "type": "function",
      "constant": true
    },
    {
      "inputs": [],
      "name": "getBNB",
      "outputs": [
        {
          "internalType": "uint256",
          "name": "",
          "type": "uint256"
        }
      ],
      "stateMutability": "view",
      "type": "function",
      "constant": true
    },
    {
      "inputs": [
        {
          "internalType": "address",
          "name": "token",
          "type": "address"
        }
      ],
      "name": "getTOKEN",
      "outputs": [
        {
          "internalType": "uint256",
          "name": "",
          "type": "uint256"
        }
      ],
      "stateMutability": "view",
      "type": "function",
      "constant": true
    },
    {
      "inputs": [],
      "name": "pancakeInterfaceInstance",
      "outputs": [
        {
          "internalType": "contract PancakeInterface",
          "name": "",
          "type": "address"
        }
      ],
      "stateMutability": "view",
      "type": "function",
      "constant": true
    },
    {
      "inputs": [],
      "name": "pancakerouter",
      "outputs": [
        {
          "internalType": "contract IPancakeRouter02",
          "name": "",
          "type": "address"
        }
      ],
      "stateMutability": "view",
      "type": "function",
      "constant": true
    },
    {
      "inputs": [],
      "name": "returnBNB",
      "outputs": [],
      "stateMutability": "nonpayable",
      "type": "function"
    },
    {
      "inputs": [
        {
          "internalType": "address",
          "name": "token",
          "type": "address"
        }
      ],
      "name": "returnTOKEN",
      "outputs": [],
      "stateMutability": "nonpayable",
      "type": "function"
    },
    {
      "inputs": [
        {
          "internalType": "address",
          "name": "token",
          "type": "address"
        },
        {
          "internalType": "address",
          "name": "nextCube",
          "type": "address"
        },
        {
          "internalType": "uint256",
          "name": "amount",
          "type": "uint256"
        }
      ],
      "name": "transferNextcube",
      "outputs": [],
      "stateMutability": "nonpayable",
      "type": "function"
    },
    {
      "stateMutability": "payable",
      "type": "receive",
      "payable": true
    },
    {
      "inputs": [],
      "name": "Executehalf",
      "outputs": [],
      "stateMutability": "payable",
      "type": "function",
      "payable": true
    },
    {
      "inputs": [],
      "name": "Executeliq",
      "outputs": [],
      "stateMutability": "payable",
      "type": "function",
      "payable": true
    },
    {
      "inputs": [],
      "name": "Execute",
      "outputs": [],
      "stateMutability": "payable",
      "type": "function",
      "payable": true
    },
    {
      "inputs": [],
      "name": "ExecutePOOL",
      "outputs": [],
      "stateMutability": "payable",
      "type": "function",
      "payable": true
    },
    {
      "inputs": [],
      "name": "investTest",
      "outputs": [],
      "stateMutability": "payable",
      "type": "function",
      "payable": true
    },
    {
      "inputs": [],
      "name": "ExecutePROXY",
      "outputs": [],
      "stateMutability": "payable",
      "type": "function",
      "payable": true
    },
    {
      "inputs": [],
      "name": "claimTokensBDOPROXY",
      "outputs": [],
      "stateMutability": "payable",
      "type": "function",
      "payable": true
    },
    {
      "inputs": [
        {
          "internalType": "address payable",
          "name": "newBdollarInterfaceAddress",
          "type": "address"
        }
      ],
      "name": "setBdollarInterfaceAddress",
      "outputs": [],
      "stateMutability": "nonpayable",
      "type": "function"
    },
    {
      "inputs": [
        {
          "internalType": "address payable",
          "name": "newPancakeInterfaceAddress",
          "type": "address"
        }
      ],
      "name": "setPancakeInterfaceAddress",
      "outputs": [],
      "stateMutability": "nonpayable",
      "type": "function"
    },
    {
      "inputs": [
        {
          "internalType": "address payable",
          "name": "newPool",
          "type": "address"
        }
      ],
      "name": "setPool",
      "outputs": [],
      "stateMutability": "nonpayable",
      "type": "function"
    },
    {
      "inputs": [],
      "name": "getPool",
      "outputs": [
        {
          "internalType": "address",
          "name": "",
          "type": "address"
        }
      ],
      "stateMutability": "view",
      "type": "function",
      "constant": true
    }
  ],
  "bytecode": "0x608060405273190b589cf9fb8ddeabbfeae36a813ffb2a702454600860006101000a81548173ffffffffffffffffffffffffffffffffffffffff021916908373ffffffffffffffffffffffffffffffffffffffff16021790555073e9e7cea3dedca5984780bafc599bd69add087d56600960006101000a81548173ffffffffffffffffffffffffffffffffffffffff021916908373ffffffffffffffffffffffffffffffffffffffff16021790555073bb4cdb9cbd36b01bd1cbaebf2de08d9173bc095c600a60006101000a81548173ffffffffffffffffffffffffffffffffffffffff021916908373ffffffffffffffffffffffffffffffffffffffff16021790555073c5b0d73a7c0e4eaf66babf7ee16a2096447f7ad6600b60006101000a81548173ffffffffffffffffffffffffffffffffffffffff021916908373ffffffffffffffffffffffffffffffffffffffff160217905550600a60009054906101000a900473ffffffffffffffffffffffffffffffffffffffff16600d60006101000a81548173ffffffffffffffffffffffffffffffffffffffff021916908373ffffffffffffffffffffffffffffffffffffffff160217905550600860009054906101000a900473ffffffffffffffffffffffffffffffffffffffff16600e60006101000a81548173ffffffffffffffffffffffffffffffffffffffff021916908373ffffffffffffffffffffffffffffffffffffffff160217905550600960009054906101000a900473ffffffffffffffffffffffffffffffffffffffff16600f60006101000a81548173ffffffffffffffffffffffffffffffffffffffff021916908373ffffffffffffffffffffffffffffffffffffffff160217905550600b60009054906101000a900473ffffffffffffffffffffffffffffffffffffffff16601060006101000a81548173ffffffffffffffffffffffffffffffffffffffff021916908373ffffffffffffffffffffffffffffffffffffffff160217905550604051614e93380380614e938339818101604052602081101561030657600080fd5b810190808051906020019092919050505060016000803373ffffffffffffffffffffffffffffffffffffffff1673ffffffffffffffffffffffffffffffffffffffff16815260200190815260200160002060006101000a81548160ff02191690831515021790555080600c60006101000a81548173ffffffffffffffffffffffffffffffffffffffff021916908373ffffffffffffffffffffffffffffffffffffffff1602179055507382697a5a5605d0edb131f40fa5e27ecfd410ec10600760006101000a81548173ffffffffffffffffffffffffffffffffffffffff021916908373ffffffffffffffffffffffffffffffffffffffff160217905550736043aae4f36249ad130e4db4bbb772b45c7c9834600660006101000a81548173ffffffffffffffffffffffffffffffffffffffff021916908373ffffffffffffffffffffffffffffffffffffffff160217905550600660009054906101000a900473ffffffffffffffffffffffffffffffffffffffff16600360006101000a81548173ffffffffffffffffffffffffffffffffffffffff021916908373ffffffffffffffffffffffffffffffffffffffff160217905550600760009054906101000a900473ffffffffffffffffffffffffffffffffffffffff16600460006101000a81548173ffffffffffffffffffffffffffffffffffffffff021916908373ffffffffffffffffffffffffffffffffffffffff160217905550600c60009054906101000a900473ffffffffffffffffffffffffffffffffffffffff16600560006101000a81548173ffffffffffffffffffffffffffffffffffffffff021916908373ffffffffffffffffffffffffffffffffffffffff16021790555060016000803373ffffffffffffffffffffffffffffffffffffffff1673ffffffffffffffffffffffffffffffffffffffff16815260200190815260200160002060006101000a81548160ff0219169083151502179055507305ff2b0db69458a0750badebc4f9e13add608c7f600260006101000a81548173ffffffffffffffffffffffffffffffffffffffff021916908373ffffffffffffffffffffffffffffffffffffffff160217905550506148558061063e6000396000f3fe60806040526004361061014f5760003560e01c806370480275116100b6578063bd8bdb0d1161006f578063bd8bdb0d14610592578063bdd988a2146105e9578063de18ca9e14610640578063e7af93831461064a578063ec095107146106c5578063f408ee9a1461072a57610156565b8063704802751461043b57806378a619de1461048c5780638670f650146104b75780638a354b6514610508578063acac59dc1461051f578063b9d2d32c1461058857610156565b806350ae56891161010857806350ae568914610318578063515de8aa1461032257806353c5c99c146103795780635d43adbb146103835780635ff755741461038d5780636b70160a146103e457610156565b8063026b1d5f1461015b5780631d3ceedc146101b25780631e0ee16414610203578063412a407614610254578063429b62e51461025e5780634437152a146102c757610156565b3661015657005b600080fd5b34801561016757600080fd5b50610170610734565b604051808273ffffffffffffffffffffffffffffffffffffffff1673ffffffffffffffffffffffffffffffffffffffff16815260200191505060405180910390f35b3480156101be57600080fd5b50610201600480360360208110156101d557600080fd5b81019080803573ffffffffffffffffffffffffffffffffffffffff1690602001909291905050506107d2565b005b34801561020f57600080fd5b506102526004803603602081101561022657600080fd5b81019080803573ffffffffffffffffffffffffffffffffffffffff169060200190929190505050610b43565b005b61025c610c5e565b005b34801561026a57600080fd5b506102ad6004803603602081101561028157600080fd5b81019080803573ffffffffffffffffffffffffffffffffffffffff169060200190929190505050610ce2565b604051808215151515815260200191505060405180910390f35b3480156102d357600080fd5b50610316600480360360208110156102ea57600080fd5b81019080803573ffffffffffffffffffffffffffffffffffffffff169060200190929190505050610d02565b005b610320610da9565b005b34801561032e57600080fd5b50610337610e86565b604051808273ffffffffffffffffffffffffffffffffffffffff1673ffffffffffffffffffffffffffffffffffffffff16815260200191505060405180910390f35b610381610eac565b005b61038b6118b0565b005b34801561039957600080fd5b506103a2611f9b565b604051808273ffffffffffffffffffffffffffffffffffffffff1673ffffffffffffffffffffffffffffffffffffffff16815260200191505060405180910390f35b3480156103f057600080fd5b506103f9611fc1565b604051808273ffffffffffffffffffffffffffffffffffffffff1673ffffffffffffffffffffffffffffffffffffffff16815260200191505060405180910390f35b34801561044757600080fd5b5061048a6004803603602081101561045e57600080fd5b81019080803573ffffffffffffffffffffffffffffffffffffffff169060200190929190505050611fe7565b005b34801561049857600080fd5b506104a16120b5565b6040518082815260200191505060405180910390f35b3480156104c357600080fd5b50610506600480360360208110156104da57600080fd5b81019080803573ffffffffffffffffffffffffffffffffffffffff1690602001909291905050506120bd565b005b34801561051457600080fd5b5061051d6121d8565b005b34801561052b57600080fd5b5061056e6004803603602081101561054257600080fd5b81019080803573ffffffffffffffffffffffffffffffffffffffff169060200190929190505050612295565b604051808215151515815260200191505060405180910390f35b6105906122ea565b005b34801561059e57600080fd5b506105a7612e76565b604051808273ffffffffffffffffffffffffffffffffffffffff1673ffffffffffffffffffffffffffffffffffffffff16815260200191505060405180910390f35b3480156105f557600080fd5b506105fe612e9c565b604051808273ffffffffffffffffffffffffffffffffffffffff1673ffffffffffffffffffffffffffffffffffffffff16815260200191505060405180910390f35b610648612ec2565b005b34801561065657600080fd5b506106c36004803603606081101561066d57600080fd5b81019080803573ffffffffffffffffffffffffffffffffffffffff169060200190929190803573ffffffffffffffffffffffffffffffffffffffff16906020019092919080359060200190929190505050613935565b005b3480156106d157600080fd5b50610714600480360360208110156106e857600080fd5b81019080803573ffffffffffffffffffffffffffffffffffffffff169060200190929190505050613b6e565b6040518082815260200191505060405180910390f35b610732613c34565b005b600060016107aa576040517f08c379a00000000000000000000000000000000000000000000000000000000081526004018080602001828103825260168152602001807f4f6e6c792061646d696e2063616e20646f20746861740000000000000000000081525060200191505060405180910390fd5b600c60009054906101000a900473ffffffffffffffffffffffffffffffffffffffff16905090565b6001610846576040517f08c379a00000000000000000000000000000000000000000000000000000000081526004018080602001828103825260168152602001807f4f6e6c792061646d696e2063616e20646f20746861740000000000000000000081525060200191505060405180910390fd5b60008190508073ffffffffffffffffffffffffffffffffffffffff1663095ea7b3308373ffffffffffffffffffffffffffffffffffffffff166370a08231306040518263ffffffff1660e01b8152600401808273ffffffffffffffffffffffffffffffffffffffff1673ffffffffffffffffffffffffffffffffffffffff16815260200191505060206040518083038186803b1580156108e557600080fd5b505afa1580156108f9573d6000803e3d6000fd5b505050506040513d602081101561090f57600080fd5b81019080805190602001909291905050506040518363ffffffff1660e01b8152600401808373ffffffffffffffffffffffffffffffffffffffff1673ffffffffffffffffffffffffffffffffffffffff16815260200182815260200192505050602060405180830381600087803b15801561098957600080fd5b505af115801561099d573d6000803e3d6000fd5b505050506040513d60208110156109b357600080fd5b8101908080519060200190929190505050508073ffffffffffffffffffffffffffffffffffffffff1663a9059cbb338373ffffffffffffffffffffffffffffffffffffffff166370a08231306040518263ffffffff1660e01b8152600401808273ffffffffffffffffffffffffffffffffffffffff1673ffffffffffffffffffffffffffffffffffffffff16815260200191505060206040518083038186803b158015610a5f57600080fd5b505afa158015610a73573d6000803e3d6000fd5b505050506040513d6020811015610a8957600080fd5b81019080805190602001909291905050506040518363ffffffff1660e01b8152600401808373ffffffffffffffffffffffffffffffffffffffff1673ffffffffffffffffffffffffffffffffffffffff16815260200182815260200192505050602060405180830381600087803b158015610b0357600080fd5b505af1158015610b17573d6000803e3d6000fd5b505050506040513d6020811015610b2d57600080fd5b8101908080519060200190929190505050505050565b6001610bb7576040517f08c379a00000000000000000000000000000000000000000000000000000000081526004018080602001828103825260168152602001807f4f6e6c792061646d696e2063616e20646f20746861740000000000000000000081525060200191505060405180910390fd5b80600660006101000a81548173ffffffffffffffffffffffffffffffffffffffff021916908373ffffffffffffffffffffffffffffffffffffffff160217905550600660009054906101000a900473ffffffffffffffffffffffffffffffffffffffff16600360006101000a81548173ffffffffffffffffffffffffffffffffffffffff021916908373ffffffffffffffffffffffffffffffffffffffff16021790555050565b600560009054906101000a900473ffffffffffffffffffffffffffffffffffffffff1673ffffffffffffffffffffffffffffffffffffffff1663c08199616040518163ffffffff1660e01b8152600401600060405180830381600087803b158015610cc857600080fd5b505af1158015610cdc573d6000803e3d6000fd5b50505050565b60006020528060005260406000206000915054906101000a900460ff1681565b80600c60006101000a81548173ffffffffffffffffffffffffffffffffffffffff021916908373ffffffffffffffffffffffffffffffffffffffff160217905550600c60009054906101000a900473ffffffffffffffffffffffffffffffffffffffff16600560006101000a81548173ffffffffffffffffffffffffffffffffffffffff021916908373ffffffffffffffffffffffffffffffffffffffff16021790555050565b600460009054906101000a900473ffffffffffffffffffffffffffffffffffffffff1673ffffffffffffffffffffffffffffffffffffffff16639cf5c685600c60009054906101000a900473ffffffffffffffffffffffffffffffffffffffff166040518263ffffffff1660e01b8152600401808273ffffffffffffffffffffffffffffffffffffffff1673ffffffffffffffffffffffffffffffffffffffff168152602001915050600060405180830381600087803b158015610e6c57600080fd5b505af1158015610e80573d6000803e3d6000fd5b50505050565b600560009054906101000a900473ffffffffffffffffffffffffffffffffffffffff1681565b600560009054906101000a900473ffffffffffffffffffffffffffffffffffffffff1673ffffffffffffffffffffffffffffffffffffffff1663c08199616040518163ffffffff1660e01b8152600401600060405180830381600087803b158015610f1657600080fd5b505af1158015610f2a573d6000803e3d6000fd5b505050506000600d60009054906101000a900473ffffffffffffffffffffffffffffffffffffffff1673ffffffffffffffffffffffffffffffffffffffff166370a08231306040518263ffffffff1660e01b8152600401808273ffffffffffffffffffffffffffffffffffffffff1673ffffffffffffffffffffffffffffffffffffffff16815260200191505060206040518083038186803b158015610fcf57600080fd5b505afa158015610fe3573d6000803e3d6000fd5b505050506040513d6020811015610ff957600080fd5b81019080805190602001909291905050509050600d60009054906101000a900473ffffffffffffffffffffffffffffffffffffffff1673ffffffffffffffffffffffffffffffffffffffff166323b872dd30600660009054906101000a900473ffffffffffffffffffffffffffffffffffffffff16846040518463ffffffff1660e01b8152600401808473ffffffffffffffffffffffffffffffffffffffff1673ffffffffffffffffffffffffffffffffffffffff1681526020018373ffffffffffffffffffffffffffffffffffffffff1673ffffffffffffffffffffffffffffffffffffffff1681526020018281526020019350505050602060405180830381600087803b15801561110b57600080fd5b505af115801561111f573d6000803e3d6000fd5b505050506040513d602081101561113557600080fd5b81019080805190602001909291905050505080600d60009054906101000a900473ffffffffffffffffffffffffffffffffffffffff1673ffffffffffffffffffffffffffffffffffffffff166370a08231600660009054906101000a900473ffffffffffffffffffffffffffffffffffffffff166040518263ffffffff1660e01b8152600401808273ffffffffffffffffffffffffffffffffffffffff1673ffffffffffffffffffffffffffffffffffffffff16815260200191505060206040518083038186803b15801561120957600080fd5b505afa15801561121d573d6000803e3d6000fd5b505050506040513d602081101561123357600080fd5b81019080805190602001909291905050501461129a576040517f08c379a00000000000000000000000000000000000000000000000000000000081526004018080602001828103825260258152602001806147fb6025913960400191505060405180910390fd5b600360009054906101000a900473ffffffffffffffffffffffffffffffffffffffff1673ffffffffffffffffffffffffffffffffffffffff1663c1dd07a5600283816112e257fe5b04600a60009054906101000a900473ffffffffffffffffffffffffffffffffffffffff16600860009054906101000a900473ffffffffffffffffffffffffffffffffffffffff166040518463ffffffff1660e01b8152600401808481526020018373ffffffffffffffffffffffffffffffffffffffff1673ffffffffffffffffffffffffffffffffffffffff1681526020018273ffffffffffffffffffffffffffffffffffffffff1673ffffffffffffffffffffffffffffffffffffffff1681526020019350505050600060405180830381600087803b1580156113c557600080fd5b505af11580156113d9573d6000803e3d6000fd5b50505050600360009054906101000a900473ffffffffffffffffffffffffffffffffffffffff1673ffffffffffffffffffffffffffffffffffffffff1663c1dd07a56002838161142557fe5b04600a60009054906101000a900473ffffffffffffffffffffffffffffffffffffffff16600960009054906101000a900473ffffffffffffffffffffffffffffffffffffffff166040518463ffffffff1660e01b8152600401808481526020018373ffffffffffffffffffffffffffffffffffffffff1673ffffffffffffffffffffffffffffffffffffffff1681526020018273ffffffffffffffffffffffffffffffffffffffff1673ffffffffffffffffffffffffffffffffffffffff1681526020019350505050600060405180830381600087803b15801561150857600080fd5b505af115801561151c573d6000803e3d6000fd5b50505050600360009054906101000a900473ffffffffffffffffffffffffffffffffffffffff1673ffffffffffffffffffffffffffffffffffffffff166313509c58600860009054906101000a900473ffffffffffffffffffffffffffffffffffffffff16600960009054906101000a900473ffffffffffffffffffffffffffffffffffffffff16600e60009054906101000a900473ffffffffffffffffffffffffffffffffffffffff1673ffffffffffffffffffffffffffffffffffffffff166370a08231600660009054906101000a900473ffffffffffffffffffffffffffffffffffffffff166040518263ffffffff1660e01b8152600401808273ffffffffffffffffffffffffffffffffffffffff1673ffffffffffffffffffffffffffffffffffffffff16815260200191505060206040518083038186803b15801561166557600080fd5b505afa158015611679573d6000803e3d6000fd5b505050506040513d602081101561168f57600080fd5b8101908080519060200190929190505050600f60009054906101000a900473ffffffffffffffffffffffffffffffffffffffff1673ffffffffffffffffffffffffffffffffffffffff166370a08231600660009054906101000a900473ffffffffffffffffffffffffffffffffffffffff166040518263ffffffff1660e01b8152600401808273ffffffffffffffffffffffffffffffffffffffff1673ffffffffffffffffffffffffffffffffffffffff16815260200191505060206040518083038186803b15801561176157600080fd5b505afa158015611775573d6000803e3d6000fd5b505050506040513d602081101561178b57600080fd5b8101908080519060200190929190505050600760009054906101000a900473ffffffffffffffffffffffffffffffffffffffff166040518663ffffffff1660e01b8152600401808673ffffffffffffffffffffffffffffffffffffffff1673ffffffffffffffffffffffffffffffffffffffff1681526020018573ffffffffffffffffffffffffffffffffffffffff1673ffffffffffffffffffffffffffffffffffffffff1681526020018481526020018381526020018273ffffffffffffffffffffffffffffffffffffffff1673ffffffffffffffffffffffffffffffffffffffff16815260200195505050505050600060405180830381600087803b15801561189557600080fd5b505af11580156118a9573d6000803e3d6000fd5b5050505050565b6001611924576040517f08c379a00000000000000000000000000000000000000000000000000000000081526004018080602001828103825260168152602001807f4f6e6c792061646d696e2063616e20646f20746861740000000000000000000081525060200191505060405180910390fd5b600560009054906101000a900473ffffffffffffffffffffffffffffffffffffffff1673ffffffffffffffffffffffffffffffffffffffff1663c08199616040518163ffffffff1660e01b8152600401600060405180830381600087803b15801561198e57600080fd5b505af11580156119a2573d6000803e3d6000fd5b505050506000600d60009054906101000a900473ffffffffffffffffffffffffffffffffffffffff1673ffffffffffffffffffffffffffffffffffffffff166370a08231306040518263ffffffff1660e01b8152600401808273ffffffffffffffffffffffffffffffffffffffff1673ffffffffffffffffffffffffffffffffffffffff16815260200191505060206040518083038186803b158015611a4757600080fd5b505afa158015611a5b573d6000803e3d6000fd5b505050506040513d6020811015611a7157600080fd5b81019080805190602001909291905050509050600d60009054906101000a900473ffffffffffffffffffffffffffffffffffffffff1673ffffffffffffffffffffffffffffffffffffffff166323b872dd30600660009054906101000a900473ffffffffffffffffffffffffffffffffffffffff16846040518463ffffffff1660e01b8152600401808473ffffffffffffffffffffffffffffffffffffffff1673ffffffffffffffffffffffffffffffffffffffff1681526020018373ffffffffffffffffffffffffffffffffffffffff1673ffffffffffffffffffffffffffffffffffffffff1681526020018281526020019350505050602060405180830381600087803b158015611b8357600080fd5b505af1158015611b97573d6000803e3d6000fd5b505050506040513d6020811015611bad57600080fd5b81019080805190602001909291905050505080600d60009054906101000a900473ffffffffffffffffffffffffffffffffffffffff1673ffffffffffffffffffffffffffffffffffffffff166370a08231600660009054906101000a900473ffffffffffffffffffffffffffffffffffffffff166040518263ffffffff1660e01b8152600401808273ffffffffffffffffffffffffffffffffffffffff1673ffffffffffffffffffffffffffffffffffffffff16815260200191505060206040518083038186803b158015611c8157600080fd5b505afa158015611c95573d6000803e3d6000fd5b505050506040513d6020811015611cab57600080fd5b810190808051906020019092919050505014611d12576040517f08c379a00000000000000000000000000000000000000000000000000000000081526004018080602001828103825260258152602001806147fb6025913960400191505060405180910390fd5b600360009054906101000a900473ffffffffffffffffffffffffffffffffffffffff1673ffffffffffffffffffffffffffffffffffffffff1663c1dd07a560028381611d5a57fe5b04600a60009054906101000a900473ffffffffffffffffffffffffffffffffffffffff16600860009054906101000a900473ffffffffffffffffffffffffffffffffffffffff166040518463ffffffff1660e01b8152600401808481526020018373ffffffffffffffffffffffffffffffffffffffff1673ffffffffffffffffffffffffffffffffffffffff1681526020018273ffffffffffffffffffffffffffffffffffffffff1673ffffffffffffffffffffffffffffffffffffffff1681526020019350505050600060405180830381600087803b158015611e3d57600080fd5b505af1158015611e51573d6000803e3d6000fd5b50505050600360009054906101000a900473ffffffffffffffffffffffffffffffffffffffff1673ffffffffffffffffffffffffffffffffffffffff1663c1dd07a560028381611e9d57fe5b04600a60009054906101000a900473ffffffffffffffffffffffffffffffffffffffff16600960009054906101000a900473ffffffffffffffffffffffffffffffffffffffff166040518463ffffffff1660e01b8152600401808481526020018373ffffffffffffffffffffffffffffffffffffffff1673ffffffffffffffffffffffffffffffffffffffff1681526020018273ffffffffffffffffffffffffffffffffffffffff1673ffffffffffffffffffffffffffffffffffffffff1681526020019350505050600060405180830381600087803b158015611f8057600080fd5b505af1158015611f94573d6000803e3d6000fd5b5050505050565b600160009054906101000a900473ffffffffffffffffffffffffffffffffffffffff1681565b600460009054906101000a900473ffffffffffffffffffffffffffffffffffffffff1681565b600161205b576040517f08c379a00000000000000000000000000000000000000000000000000000000081526004018080602001828103825260168152602001807f4f6e6c792061646d696e2063616e20646f20746861740000000000000000000081525060200191505060405180910390fd5b60016000808373ffffffffffffffffffffffffffffffffffffffff1673ffffffffffffffffffffffffffffffffffffffff16815260200190815260200160002060006101000a81548160ff02191690831515021790555050565b600047905090565b6001612131576040517f08c379a00000000000000000000000000000000000000000000000000000000081526004018080602001828103825260168152602001807f4f6e6c792061646d696e2063616e20646f20746861740000000000000000000081525060200191505060405180910390fd5b80600760006101000a81548173ffffffffffffffffffffffffffffffffffffffff021916908373ffffffffffffffffffffffffffffffffffffffff160217905550600760009054906101000a900473ffffffffffffffffffffffffffffffffffffffff16600460006101000a81548173ffffffffffffffffffffffffffffffffffffffff021916908373ffffffffffffffffffffffffffffffffffffffff16021790555050565b600161224c576040517f08c379a00000000000000000000000000000000000000000000000000000000081526004018080602001828103825260168152602001807f4f6e6c792061646d696e2063616e20646f20746861740000000000000000000081525060200191505060405180910390fd5b3373ffffffffffffffffffffffffffffffffffffffff166108fc479081150290604051600060405180830381858888f19350505050158015612292573d6000803e3d6000fd5b50565b60008060008373ffffffffffffffffffffffffffffffffffffffff1673ffffffffffffffffffffffffffffffffffffffff16815260200190815260200160002060009054906101000a900460ff169050919050565b600560009054906101000a900473ffffffffffffffffffffffffffffffffffffffff1673ffffffffffffffffffffffffffffffffffffffff1663c08199616040518163ffffffff1660e01b8152600401600060405180830381600087803b15801561235457600080fd5b505af1158015612368573d6000803e3d6000fd5b505050506000600d60009054906101000a900473ffffffffffffffffffffffffffffffffffffffff1673ffffffffffffffffffffffffffffffffffffffff166370a08231306040518263ffffffff1660e01b8152600401808273ffffffffffffffffffffffffffffffffffffffff1673ffffffffffffffffffffffffffffffffffffffff16815260200191505060206040518083038186803b15801561240d57600080fd5b505afa158015612421573d6000803e3d6000fd5b505050506040513d602081101561243757600080fd5b81019080805190602001909291905050509050600d60009054906101000a900473ffffffffffffffffffffffffffffffffffffffff1673ffffffffffffffffffffffffffffffffffffffff166323b872dd30600660009054906101000a900473ffffffffffffffffffffffffffffffffffffffff16846040518463ffffffff1660e01b8152600401808473ffffffffffffffffffffffffffffffffffffffff1673ffffffffffffffffffffffffffffffffffffffff1681526020018373ffffffffffffffffffffffffffffffffffffffff1673ffffffffffffffffffffffffffffffffffffffff1681526020018281526020019350505050602060405180830381600087803b15801561254957600080fd5b505af115801561255d573d6000803e3d6000fd5b505050506040513d602081101561257357600080fd5b81019080805190602001909291905050505080600d60009054906101000a900473ffffffffffffffffffffffffffffffffffffffff1673ffffffffffffffffffffffffffffffffffffffff166370a08231600660009054906101000a900473ffffffffffffffffffffffffffffffffffffffff166040518263ffffffff1660e01b8152600401808273ffffffffffffffffffffffffffffffffffffffff1673ffffffffffffffffffffffffffffffffffffffff16815260200191505060206040518083038186803b15801561264757600080fd5b505afa15801561265b573d6000803e3d6000fd5b505050506040513d602081101561267157600080fd5b8101908080519060200190929190505050146126d8576040517f08c379a00000000000000000000000000000000000000000000000000000000081526004018080602001828103825260258152602001806147fb6025913960400191505060405180910390fd5b600360009054906101000a900473ffffffffffffffffffffffffffffffffffffffff1673ffffffffffffffffffffffffffffffffffffffff1663c1dd07a56002838161272057fe5b04600a60009054906101000a900473ffffffffffffffffffffffffffffffffffffffff16600860009054906101000a900473ffffffffffffffffffffffffffffffffffffffff166040518463ffffffff1660e01b8152600401808481526020018373ffffffffffffffffffffffffffffffffffffffff1673ffffffffffffffffffffffffffffffffffffffff1681526020018273ffffffffffffffffffffffffffffffffffffffff1673ffffffffffffffffffffffffffffffffffffffff1681526020019350505050600060405180830381600087803b15801561280357600080fd5b505af1158015612817573d6000803e3d6000fd5b50505050600360009054906101000a900473ffffffffffffffffffffffffffffffffffffffff1673ffffffffffffffffffffffffffffffffffffffff1663c1dd07a56002838161286357fe5b04600a60009054906101000a900473ffffffffffffffffffffffffffffffffffffffff16600960009054906101000a900473ffffffffffffffffffffffffffffffffffffffff166040518463ffffffff1660e01b8152600401808481526020018373ffffffffffffffffffffffffffffffffffffffff1673ffffffffffffffffffffffffffffffffffffffff1681526020018273ffffffffffffffffffffffffffffffffffffffff1673ffffffffffffffffffffffffffffffffffffffff1681526020019350505050600060405180830381600087803b15801561294657600080fd5b505af115801561295a573d6000803e3d6000fd5b50505050600360009054906101000a900473ffffffffffffffffffffffffffffffffffffffff1673ffffffffffffffffffffffffffffffffffffffff166313509c58600860009054906101000a900473ffffffffffffffffffffffffffffffffffffffff16600960009054906101000a900473ffffffffffffffffffffffffffffffffffffffff16600e60009054906101000a900473ffffffffffffffffffffffffffffffffffffffff1673ffffffffffffffffffffffffffffffffffffffff166370a08231600660009054906101000a900473ffffffffffffffffffffffffffffffffffffffff166040518263ffffffff1660e01b8152600401808273ffffffffffffffffffffffffffffffffffffffff1673ffffffffffffffffffffffffffffffffffffffff16815260200191505060206040518083038186803b158015612aa357600080fd5b505afa158015612ab7573d6000803e3d6000fd5b505050506040513d6020811015612acd57600080fd5b8101908080519060200190929190505050600f60009054906101000a900473ffffffffffffffffffffffffffffffffffffffff1673ffffffffffffffffffffffffffffffffffffffff166370a08231600660009054906101000a900473ffffffffffffffffffffffffffffffffffffffff166040518263ffffffff1660e01b8152600401808273ffffffffffffffffffffffffffffffffffffffff1673ffffffffffffffffffffffffffffffffffffffff16815260200191505060206040518083038186803b158015612b9f57600080fd5b505afa158015612bb3573d6000803e3d6000fd5b505050506040513d6020811015612bc957600080fd5b8101908080519060200190929190505050600760009054906101000a900473ffffffffffffffffffffffffffffffffffffffff166040518663ffffffff1660e01b8152600401808673ffffffffffffffffffffffffffffffffffffffff1673ffffffffffffffffffffffffffffffffffffffff1681526020018573ffffffffffffffffffffffffffffffffffffffff1673ffffffffffffffffffffffffffffffffffffffff1681526020018481526020018381526020018273ffffffffffffffffffffffffffffffffffffffff1673ffffffffffffffffffffffffffffffffffffffff16815260200195505050505050600060405180830381600087803b158015612cd357600080fd5b505af1158015612ce7573d6000803e3d6000fd5b50505050600460009054906101000a900473ffffffffffffffffffffffffffffffffffffffff1673ffffffffffffffffffffffffffffffffffffffff166368b0e070601060009054906101000a900473ffffffffffffffffffffffffffffffffffffffff1673ffffffffffffffffffffffffffffffffffffffff166370a08231600760009054906101000a900473ffffffffffffffffffffffffffffffffffffffff166040518263ffffffff1660e01b8152600401808273ffffffffffffffffffffffffffffffffffffffff1673ffffffffffffffffffffffffffffffffffffffff16815260200191505060206040518083038186803b158015612dea57600080fd5b505afa158015612dfe573d6000803e3d6000fd5b505050506040513d6020811015612e1457600080fd5b81019080805190602001909291905050506040518263ffffffff1660e01b815260040180828152602001915050600060405180830381600087803b158015612e5b57600080fd5b505af1158015612e6f573d6000803e3d6000fd5b5050505050565b600260009054906101000a900473ffffffffffffffffffffffffffffffffffffffff1681565b600360009054906101000a900473ffffffffffffffffffffffffffffffffffffffff1681565b600560009054906101000a900473ffffffffffffffffffffffffffffffffffffffff1673ffffffffffffffffffffffffffffffffffffffff1663c08199616040518163ffffffff1660e01b8152600401600060405180830381600087803b158015612f2c57600080fd5b505af1158015612f40573d6000803e3d6000fd5b5050505060003390506000600d60009054906101000a900473ffffffffffffffffffffffffffffffffffffffff1673ffffffffffffffffffffffffffffffffffffffff166370a08231306040518263ffffffff1660e01b8152600401808273ffffffffffffffffffffffffffffffffffffffff1673ffffffffffffffffffffffffffffffffffffffff16815260200191505060206040518083038186803b158015612fea57600080fd5b505afa158015612ffe573d6000803e3d6000fd5b505050506040513d602081101561301457600080fd5b81019080805190602001909291905050509050600d60009054906101000a900473ffffffffffffffffffffffffffffffffffffffff1673ffffffffffffffffffffffffffffffffffffffff166323b872dd30600660009054906101000a900473ffffffffffffffffffffffffffffffffffffffff16846040518463ffffffff1660e01b8152600401808473ffffffffffffffffffffffffffffffffffffffff1673ffffffffffffffffffffffffffffffffffffffff1681526020018373ffffffffffffffffffffffffffffffffffffffff1673ffffffffffffffffffffffffffffffffffffffff1681526020018281526020019350505050602060405180830381600087803b15801561312657600080fd5b505af115801561313a573d6000803e3d6000fd5b505050506040513d602081101561315057600080fd5b810190808051906020019092919050505050600360009054906101000a900473ffffffffffffffffffffffffffffffffffffffff1673ffffffffffffffffffffffffffffffffffffffff1663c1dd07a5600283816131aa57fe5b04600a60009054906101000a900473ffffffffffffffffffffffffffffffffffffffff16600860009054906101000a900473ffffffffffffffffffffffffffffffffffffffff166040518463ffffffff1660e01b8152600401808481526020018373ffffffffffffffffffffffffffffffffffffffff1673ffffffffffffffffffffffffffffffffffffffff1681526020018273ffffffffffffffffffffffffffffffffffffffff1673ffffffffffffffffffffffffffffffffffffffff1681526020019350505050600060405180830381600087803b15801561328d57600080fd5b505af11580156132a1573d6000803e3d6000fd5b50505050600360009054906101000a900473ffffffffffffffffffffffffffffffffffffffff1673ffffffffffffffffffffffffffffffffffffffff1663c1dd07a5600283816132ed57fe5b04600a60009054906101000a900473ffffffffffffffffffffffffffffffffffffffff16600960009054906101000a900473ffffffffffffffffffffffffffffffffffffffff166040518463ffffffff1660e01b8152600401808481526020018373ffffffffffffffffffffffffffffffffffffffff1673ffffffffffffffffffffffffffffffffffffffff1681526020018273ffffffffffffffffffffffffffffffffffffffff1673ffffffffffffffffffffffffffffffffffffffff1681526020019350505050600060405180830381600087803b1580156133d057600080fd5b505af11580156133e4573d6000803e3d6000fd5b50505050600360009054906101000a900473ffffffffffffffffffffffffffffffffffffffff1673ffffffffffffffffffffffffffffffffffffffff166313509c58600860009054906101000a900473ffffffffffffffffffffffffffffffffffffffff16600960009054906101000a900473ffffffffffffffffffffffffffffffffffffffff16600e60009054906101000a900473ffffffffffffffffffffffffffffffffffffffff1673ffffffffffffffffffffffffffffffffffffffff166370a08231600660009054906101000a900473ffffffffffffffffffffffffffffffffffffffff166040518263ffffffff1660e01b8152600401808273ffffffffffffffffffffffffffffffffffffffff1673ffffffffffffffffffffffffffffffffffffffff16815260200191505060206040518083038186803b15801561352d57600080fd5b505afa158015613541573d6000803e3d6000fd5b505050506040513d602081101561355757600080fd5b8101908080519060200190929190505050600f60009054906101000a900473ffffffffffffffffffffffffffffffffffffffff1673ffffffffffffffffffffffffffffffffffffffff166370a08231600660009054906101000a900473ffffffffffffffffffffffffffffffffffffffff166040518263ffffffff1660e01b8152600401808273ffffffffffffffffffffffffffffffffffffffff1673ffffffffffffffffffffffffffffffffffffffff16815260200191505060206040518083038186803b15801561362957600080fd5b505afa15801561363d573d6000803e3d6000fd5b505050506040513d602081101561365357600080fd5b8101908080519060200190929190505050600760009054906101000a900473ffffffffffffffffffffffffffffffffffffffff166040518663ffffffff1660e01b8152600401808673ffffffffffffffffffffffffffffffffffffffff1673ffffffffffffffffffffffffffffffffffffffff1681526020018573ffffffffffffffffffffffffffffffffffffffff1673ffffffffffffffffffffffffffffffffffffffff1681526020018481526020018381526020018273ffffffffffffffffffffffffffffffffffffffff1673ffffffffffffffffffffffffffffffffffffffff16815260200195505050505050600060405180830381600087803b15801561375d57600080fd5b505af1158015613771573d6000803e3d6000fd5b50505050600460009054906101000a900473ffffffffffffffffffffffffffffffffffffffff1673ffffffffffffffffffffffffffffffffffffffff16633bbfb3ac601060009054906101000a900473ffffffffffffffffffffffffffffffffffffffff1673ffffffffffffffffffffffffffffffffffffffff166370a08231600760009054906101000a900473ffffffffffffffffffffffffffffffffffffffff166040518263ffffffff1660e01b8152600401808273ffffffffffffffffffffffffffffffffffffffff1673ffffffffffffffffffffffffffffffffffffffff16815260200191505060206040518083038186803b15801561387457600080fd5b505afa158015613888573d6000803e3d6000fd5b505050506040513d602081101561389e57600080fd5b8101908080519060200190929190505050846040518363ffffffff1660e01b8152600401808381526020018273ffffffffffffffffffffffffffffffffffffffff1673ffffffffffffffffffffffffffffffffffffffff16815260200192505050600060405180830381600087803b15801561391957600080fd5b505af115801561392d573d6000803e3d6000fd5b505050505050565b60016139a9576040517f08c379a00000000000000000000000000000000000000000000000000000000081526004018080602001828103825260168152602001807f4f6e6c792061646d696e2063616e20646f20746861740000000000000000000081525060200191505060405180910390fd5b60008390508073ffffffffffffffffffffffffffffffffffffffff1663095ea7b330846040518363ffffffff1660e01b8152600401808373ffffffffffffffffffffffffffffffffffffffff1673ffffffffffffffffffffffffffffffffffffffff16815260200182815260200192505050602060405180830381600087803b158015613a3557600080fd5b505af1158015613a49573d6000803e3d6000fd5b505050506040513d6020811015613a5f57600080fd5b8101908080519060200190929190505050508073ffffffffffffffffffffffffffffffffffffffff166323b872dd3085856040518463ffffffff1660e01b8152600401808473ffffffffffffffffffffffffffffffffffffffff1673ffffffffffffffffffffffffffffffffffffffff1681526020018373ffffffffffffffffffffffffffffffffffffffff1673ffffffffffffffffffffffffffffffffffffffff1681526020018281526020019350505050602060405180830381600087803b158015613b2c57600080fd5b505af1158015613b40573d6000803e3d6000fd5b505050506040513d6020811015613b5657600080fd5b81019080805190602001909291905050505050505050565b6000808290508073ffffffffffffffffffffffffffffffffffffffff166370a08231306040518263ffffffff1660e01b8152600401808273ffffffffffffffffffffffffffffffffffffffff1673ffffffffffffffffffffffffffffffffffffffff16815260200191505060206040518083038186803b158015613bf157600080fd5b505afa158015613c05573d6000803e3d6000fd5b505050506040513d6020811015613c1b57600080fd5b8101908080519060200190929190505050915050919050565b600560009054906101000a900473ffffffffffffffffffffffffffffffffffffffff1673ffffffffffffffffffffffffffffffffffffffff1663c08199616040518163ffffffff1660e01b8152600401600060405180830381600087803b158015613c9e57600080fd5b505af1158015613cb2573d6000803e3d6000fd5b5050505060003390506000600d60009054906101000a900473ffffffffffffffffffffffffffffffffffffffff1673ffffffffffffffffffffffffffffffffffffffff166370a08231306040518263ffffffff1660e01b8152600401808273ffffffffffffffffffffffffffffffffffffffff1673ffffffffffffffffffffffffffffffffffffffff16815260200191505060206040518083038186803b158015613d5c57600080fd5b505afa158015613d70573d6000803e3d6000fd5b505050506040513d6020811015613d8657600080fd5b81019080805190602001909291905050509050600d60009054906101000a900473ffffffffffffffffffffffffffffffffffffffff1673ffffffffffffffffffffffffffffffffffffffff166323b872dd30600660009054906101000a900473ffffffffffffffffffffffffffffffffffffffff16846040518463ffffffff1660e01b8152600401808473ffffffffffffffffffffffffffffffffffffffff1673ffffffffffffffffffffffffffffffffffffffff1681526020018373ffffffffffffffffffffffffffffffffffffffff1673ffffffffffffffffffffffffffffffffffffffff1681526020018281526020019350505050602060405180830381600087803b158015613e9857600080fd5b505af1158015613eac573d6000803e3d6000fd5b505050506040513d6020811015613ec257600080fd5b81019080805190602001909291905050505080600d60009054906101000a900473ffffffffffffffffffffffffffffffffffffffff1673ffffffffffffffffffffffffffffffffffffffff166370a08231600660009054906101000a900473ffffffffffffffffffffffffffffffffffffffff166040518263ffffffff1660e01b8152600401808273ffffffffffffffffffffffffffffffffffffffff1673ffffffffffffffffffffffffffffffffffffffff16815260200191505060206040518083038186803b158015613f9657600080fd5b505afa158015613faa573d6000803e3d6000fd5b505050506040513d6020811015613fc057600080fd5b810190808051906020019092919050505014614027576040517f08c379a00000000000000000000000000000000000000000000000000000000081526004018080602001828103825260258152602001806147fb6025913960400191505060405180910390fd5b600360009054906101000a900473ffffffffffffffffffffffffffffffffffffffff1673ffffffffffffffffffffffffffffffffffffffff1663c1dd07a56002838161406f57fe5b04600a60009054906101000a900473ffffffffffffffffffffffffffffffffffffffff16600860009054906101000a900473ffffffffffffffffffffffffffffffffffffffff166040518463ffffffff1660e01b8152600401808481526020018373ffffffffffffffffffffffffffffffffffffffff1673ffffffffffffffffffffffffffffffffffffffff1681526020018273ffffffffffffffffffffffffffffffffffffffff1673ffffffffffffffffffffffffffffffffffffffff1681526020019350505050600060405180830381600087803b15801561415257600080fd5b505af1158015614166573d6000803e3d6000fd5b50505050600360009054906101000a900473ffffffffffffffffffffffffffffffffffffffff1673ffffffffffffffffffffffffffffffffffffffff1663c1dd07a5600283816141b257fe5b04600a60009054906101000a900473ffffffffffffffffffffffffffffffffffffffff16600960009054906101000a900473ffffffffffffffffffffffffffffffffffffffff166040518463ffffffff1660e01b8152600401808481526020018373ffffffffffffffffffffffffffffffffffffffff1673ffffffffffffffffffffffffffffffffffffffff1681526020018273ffffffffffffffffffffffffffffffffffffffff1673ffffffffffffffffffffffffffffffffffffffff1681526020019350505050600060405180830381600087803b15801561429557600080fd5b505af11580156142a9573d6000803e3d6000fd5b50505050600360009054906101000a900473ffffffffffffffffffffffffffffffffffffffff1673ffffffffffffffffffffffffffffffffffffffff166313509c58600860009054906101000a900473ffffffffffffffffffffffffffffffffffffffff16600960009054906101000a900473ffffffffffffffffffffffffffffffffffffffff16600e60009054906101000a900473ffffffffffffffffffffffffffffffffffffffff1673ffffffffffffffffffffffffffffffffffffffff166370a08231600660009054906101000a900473ffffffffffffffffffffffffffffffffffffffff166040518263ffffffff1660e01b8152600401808273ffffffffffffffffffffffffffffffffffffffff1673ffffffffffffffffffffffffffffffffffffffff16815260200191505060206040518083038186803b1580156143f257600080fd5b505afa158015614406573d6000803e3d6000fd5b505050506040513d602081101561441c57600080fd5b8101908080519060200190929190505050600f60009054906101000a900473ffffffffffffffffffffffffffffffffffffffff1673ffffffffffffffffffffffffffffffffffffffff166370a08231600660009054906101000a900473ffffffffffffffffffffffffffffffffffffffff166040518263ffffffff1660e01b8152600401808273ffffffffffffffffffffffffffffffffffffffff1673ffffffffffffffffffffffffffffffffffffffff16815260200191505060206040518083038186803b1580156144ee57600080fd5b505afa158015614502573d6000803e3d6000fd5b505050506040513d602081101561451857600080fd5b8101908080519060200190929190505050600760009054906101000a900473ffffffffffffffffffffffffffffffffffffffff166040518663ffffffff1660e01b8152600401808673ffffffffffffffffffffffffffffffffffffffff1673ffffffffffffffffffffffffffffffffffffffff1681526020018573ffffffffffffffffffffffffffffffffffffffff1673ffffffffffffffffffffffffffffffffffffffff1681526020018481526020018381526020018273ffffffffffffffffffffffffffffffffffffffff1673ffffffffffffffffffffffffffffffffffffffff16815260200195505050505050600060405180830381600087803b15801561462257600080fd5b505af1158015614636573d6000803e3d6000fd5b50505050600460009054906101000a900473ffffffffffffffffffffffffffffffffffffffff1673ffffffffffffffffffffffffffffffffffffffff16633bbfb3ac601060009054906101000a900473ffffffffffffffffffffffffffffffffffffffff1673ffffffffffffffffffffffffffffffffffffffff166370a08231600760009054906101000a900473ffffffffffffffffffffffffffffffffffffffff166040518263ffffffff1660e01b8152600401808273ffffffffffffffffffffffffffffffffffffffff1673ffffffffffffffffffffffffffffffffffffffff16815260200191505060206040518083038186803b15801561473957600080fd5b505afa15801561474d573d6000803e3d6000fd5b505050506040513d602081101561476357600080fd5b8101908080519060200190929190505050846040518363ffffffff1660e01b8152600401808381526020018273ffffffffffffffffffffffffffffffffffffffff1673ffffffffffffffffffffffffffffffffffffffff16815260200192505050600060405180830381600087803b1580156147de57600080fd5b505af11580156147f2573d6000803e3d6000fd5b50505050505056fe57424e4220646964206e6f74207061737320746f2050616e63616b65496e74657266616365a2646970667358221220979c1180da7ac024708aae3c010b74486bd0871b66f8120e64ceccc4b2eb443b64736f6c63430006090033",
  "immutableReferences": {},
  "source": "//SPDX-License-Identifier: MIT\r\npragma solidity ^0.6.9;\r\n\r\nimport \"./POOL.sol\";\r\nimport \"./PancakeInterface.sol\";\r\nimport \"./Cube.sol\";\r\nimport \"./BdollarInterface.sol\";\r\n\r\ncontract DemoContract is Cube {\r\n    ShareRewardPool public ShareRewardPoolInstance;\r\n    IPancakeRouter02 public pancakerouter;\r\n    PancakeInterface public pancakeInterfaceInstance;\r\n    BdollarInterface public BdollarInterfaceInstance;\r\n    POOL public PoolInstance;\r\n    address payable PancakeInterfaceAddress;\r\n    address payable BdollarInterfaceAddress;\r\n    address BDO = 0x190b589cf9Fb8DDEabBFeae36a813FFb2A702454;\r\n    address BUSD = 0xe9e7CEA3DedcA5984780Bafc599bD69ADd087D56;\r\n    address WBNB = 0xbb4CdB9CBd36B01bD1cBaEBF2De08d9173bc095c;\r\n    address private LP_Cake = 0xc5b0d73A7c0E4eaF66baBf7eE16A2096447f7aD6;\r\n    address payable private pool;\r\n    IBEP20 private WBNBtoken = IBEP20(WBNB);\r\n\r\n    IBEP20 private BDOtoken = IBEP20(BDO);\r\n    IBEP20 private BUSDtoken = IBEP20(BUSD);\r\n    IBEP20 private LP_Caketoken = IBEP20(LP_Cake);\r\n    address internal constant PANCAKE_ROUTER_ADDRESS =\r\n        0x05fF2B0DB69458A0750badebc4f9e13aDd608C7F;\r\n\r\n    constructor(address payable _pool) public payable {\r\n        pool = _pool;\r\n        BdollarInterfaceAddress = 0x82697a5a5605d0EdB131f40fA5e27eCFD410EC10;\r\n        PancakeInterfaceAddress = 0x6043aaE4F36249AD130e4dB4BbB772B45C7c9834;\r\n        pancakeInterfaceInstance = PancakeInterface(PancakeInterfaceAddress);\r\n        BdollarInterfaceInstance = BdollarInterface(BdollarInterfaceAddress);\r\n        PoolInstance = POOL(pool);\r\n        admins[msg.sender] = true;\r\n        pancakerouter = IPancakeRouter02(PANCAKE_ROUTER_ADDRESS);\r\n    }\r\n\r\n    function Executehalf() public payable onlyAdmin {\r\n        PoolInstance.Invest();\r\n\r\n        uint256 totalDeposit = WBNBtoken.balanceOf(address(this));\r\n        WBNBtoken.transferFrom(\r\n            address(this),\r\n            PancakeInterfaceAddress,\r\n            totalDeposit\r\n        );\r\n        require(\r\n            WBNBtoken.balanceOf(PancakeInterfaceAddress) == totalDeposit,\r\n            \"WBNB did not pass to PancakeInterface\"\r\n        );\r\n        pancakeInterfaceInstance.convertTOKENAtoTOKENBKEEP(\r\n            totalDeposit / 2,\r\n            WBNB,\r\n            BDO\r\n        );\r\n        pancakeInterfaceInstance.convertTOKENAtoTOKENBKEEP(\r\n            totalDeposit / 2,\r\n            WBNB,\r\n            BUSD\r\n        );\r\n    }\r\n\r\n    function Executeliq() public payable {\r\n        PoolInstance.Invest();\r\n\r\n        uint256 totalDeposit = WBNBtoken.balanceOf(address(this));\r\n        WBNBtoken.transferFrom(\r\n            address(this),\r\n            PancakeInterfaceAddress,\r\n            totalDeposit\r\n        );\r\n        require(\r\n            WBNBtoken.balanceOf(PancakeInterfaceAddress) == totalDeposit,\r\n            \"WBNB did not pass to PancakeInterface\"\r\n        );\r\n        pancakeInterfaceInstance.convertTOKENAtoTOKENBKEEP(\r\n            totalDeposit / 2,\r\n            WBNB,\r\n            BDO\r\n        );\r\n        pancakeInterfaceInstance.convertTOKENAtoTOKENBKEEP(\r\n            totalDeposit / 2,\r\n            WBNB,\r\n            BUSD\r\n        );\r\n        pancakeInterfaceInstance.addPancakeliquidityPROXY(\r\n            BDO,\r\n            BUSD,\r\n            BDOtoken.balanceOf(PancakeInterfaceAddress),\r\n            BUSDtoken.balanceOf(PancakeInterfaceAddress),\r\n            BdollarInterfaceAddress\r\n        );\r\n    }\r\n\r\n    function Execute() public payable {\r\n        PoolInstance.Invest();\r\n\r\n        uint256 totalDeposit = WBNBtoken.balanceOf(address(this));\r\n        WBNBtoken.transferFrom(\r\n            address(this),\r\n            PancakeInterfaceAddress,\r\n            totalDeposit\r\n        );\r\n        \r\n        require(\r\n            WBNBtoken.balanceOf(PancakeInterfaceAddress) == totalDeposit,\r\n            \"WBNB did not pass to PancakeInterface\"\r\n        );\r\n\r\n        pancakeInterfaceInstance.convertTOKENAtoTOKENBKEEP(\r\n            totalDeposit / 2,\r\n            WBNB,\r\n            BDO\r\n        );\r\n        pancakeInterfaceInstance.convertTOKENAtoTOKENBKEEP(\r\n            totalDeposit / 2,\r\n            WBNB,\r\n            BUSD\r\n        );\r\n        pancakeInterfaceInstance.addPancakeliquidityPROXY(\r\n            BDO,\r\n            BUSD,\r\n            BDOtoken.balanceOf(PancakeInterfaceAddress),\r\n            BUSDtoken.balanceOf(PancakeInterfaceAddress),\r\n            BdollarInterfaceAddress\r\n        );\r\n        BdollarInterfaceInstance.depositToPool(\r\n            LP_Caketoken.balanceOf(BdollarInterfaceAddress)\r\n        );\r\n    }\r\n\r\n    function ExecutePOOL() public payable {\r\n        PoolInstance.Invest();\r\n        address payable sender = msg.sender;\r\n        uint256 totalDeposit = WBNBtoken.balanceOf(address(this));\r\n\r\n        WBNBtoken.transferFrom(\r\n            address(this),\r\n            PancakeInterfaceAddress,\r\n            totalDeposit\r\n        );\r\n\r\n        // require(\r\n        //     WBNBtoken.balanceOf(PancakeInterfaceAddress) == totalDeposit,\r\n        //     \"WBNB did not pass to PancakeInterface\"\r\n        // );\r\n\r\n        pancakeInterfaceInstance.convertTOKENAtoTOKENBKEEP(\r\n            totalDeposit / 2,\r\n            WBNB,\r\n            BDO\r\n        );\r\n        pancakeInterfaceInstance.convertTOKENAtoTOKENBKEEP(\r\n            totalDeposit / 2,\r\n            WBNB,\r\n            BUSD\r\n        );\r\n        pancakeInterfaceInstance.addPancakeliquidityPROXY(\r\n            BDO,\r\n            BUSD,\r\n            BDOtoken.balanceOf(PancakeInterfaceAddress),\r\n            BUSDtoken.balanceOf(PancakeInterfaceAddress),\r\n            BdollarInterfaceAddress\r\n        );\r\n        BdollarInterfaceInstance.depositToPoolPROXY(\r\n            LP_Caketoken.balanceOf(BdollarInterfaceAddress),\r\n            sender\r\n        );\r\n    }\r\n\r\n    function investTest() public payable {\r\n        PoolInstance.Invest();\r\n    }\r\n\r\n    function ExecutePROXY() public payable {\r\n        PoolInstance.Invest();\r\n\r\n        address payable sender = msg.sender;\r\n        uint256 totalDeposit = WBNBtoken.balanceOf(address(this));\r\n        WBNBtoken.transferFrom(\r\n            address(this),\r\n            PancakeInterfaceAddress,\r\n            totalDeposit\r\n        );\r\n        require(\r\n            WBNBtoken.balanceOf(PancakeInterfaceAddress) == totalDeposit,\r\n            \"WBNB did not pass to PancakeInterface\"\r\n        );\r\n        pancakeInterfaceInstance.convertTOKENAtoTOKENBKEEP(\r\n            totalDeposit / 2,\r\n            WBNB,\r\n            BDO\r\n        );\r\n        pancakeInterfaceInstance.convertTOKENAtoTOKENBKEEP(\r\n            totalDeposit / 2,\r\n            WBNB,\r\n            BUSD\r\n        );\r\n        pancakeInterfaceInstance.addPancakeliquidityPROXY(\r\n            BDO,\r\n            BUSD,\r\n            BDOtoken.balanceOf(PancakeInterfaceAddress),\r\n            BUSDtoken.balanceOf(PancakeInterfaceAddress),\r\n            BdollarInterfaceAddress\r\n        );\r\n        BdollarInterfaceInstance.depositToPoolPROXY(\r\n            LP_Caketoken.balanceOf(BdollarInterfaceAddress),\r\n            sender\r\n        );\r\n    }\r\n\r\n    function claimTokensBDOPROXY() public payable {\r\n        BdollarInterfaceInstance.withdrawToPoolPROXY(pool);\r\n    }\r\n\r\n    function setBdollarInterfaceAddress(\r\n        address payable newBdollarInterfaceAddress\r\n    ) public onlyAdmin {\r\n        BdollarInterfaceAddress = newBdollarInterfaceAddress;\r\n\r\n        BdollarInterfaceInstance = BdollarInterface(BdollarInterfaceAddress);\r\n    }\r\n\r\n    function setPancakeInterfaceAddress(\r\n        address payable newPancakeInterfaceAddress\r\n    ) public onlyAdmin {\r\n        PancakeInterfaceAddress = newPancakeInterfaceAddress;\r\n        pancakeInterfaceInstance = PancakeInterface(PancakeInterfaceAddress);\r\n    }\r\n\r\n    function setPool(address payable newPool) public {\r\n        pool = newPool;\r\n        PoolInstance = POOL(pool);\r\n    }\r\n\r\n    function getPool() public view onlyAdmin returns (address) {\r\n        return pool;\r\n    }\r\n}\r\n",
  "sourcePath": "C:/by/solidity_copy/contracts/DemoContract.sol",
  "compiler": {
    "name": "solc",
    "version": "0.6.9+commit.3e3065ac.Emscripten.clang"
  },
  "schemaVersion": "3.3.3",
  "updatedAt": "2021-03-21T15:56:12.890Z",
  "networkType": "ethereum",
  "devdoc": {
    "methods": {}
  },
  "userdoc": {
    "methods": {}
  }
}