{
    "contractName": "NPOOL",
    "abi": [
        {
            "inputs": [],
            "stateMutability": "payable",
            "type": "constructor",
            "payable": true
        },
        {
            "anonymous": false,
            "inputs": [
                {
                    "indexed": false,
                    "internalType": "uint256",
                    "name": "halfDeposit",
                    "type": "uint256"
                }
            ],
            "name": "event1",
            "type": "event"
        },
        {
            "anonymous": false,
            "inputs": [
                {
                    "indexed": false,
                    "internalType": "uint256",
                    "name": "halfDeposit",
                    "type": "uint256"
                }
            ],
            "name": "event2",
            "type": "event"
        },
        {
            "anonymous": false,
            "inputs": [],
            "name": "event3",
            "type": "event"
        },
        {
            "anonymous": false,
            "inputs": [],
            "name": "event4",
            "type": "event"
        },
        {
            "inputs": [
                {
                    "internalType": "uint256",
                    "name": "amountA",
                    "type": "uint256"
                },
                {
                    "internalType": "address",
                    "name": "TokenA",
                    "type": "address"
                },
                {
                    "internalType": "address",
                    "name": "TokenB",
                    "type": "address"
                }
            ],
            "name": "getEstimatedTOKENBforTOKENA",
            "outputs": [
                {
                    "internalType": "uint256[]",
                    "name": "",
                    "type": "uint256[]"
                }
            ],
            "stateMutability": "view",
            "type": "function",
            "constant": true
        },
        {
            "inputs": [
                {
                    "internalType": "uint256",
                    "name": "amountA",
                    "type": "uint256"
                },
                {
                    "internalType": "address",
                    "name": "TokenA",
                    "type": "address"
                },
                {
                    "internalType": "address",
                    "name": "TokenB",
                    "type": "address"
                }
            ],
            "name": "convertTOKENAtoTOKENBKEEP",
            "outputs": [],
            "stateMutability": "payable",
            "type": "function",
            "payable": true
        },
        {
            "inputs": [],
            "name": "depositToBDOPool",
            "outputs": [],
            "stateMutability": "nonpayable",
            "type": "function"
        },
        {
            "inputs": [
                {
                    "internalType": "address",
                    "name": "tokenA",
                    "type": "address"
                },
                {
                    "internalType": "address",
                    "name": "tokenB",
                    "type": "address"
                },
                {
                    "internalType": "uint256",
                    "name": "amountA",
                    "type": "uint256"
                },
                {
                    "internalType": "uint256",
                    "name": "amountB",
                    "type": "uint256"
                }
            ],
            "name": "addPancakeliquidityPROXY",
            "outputs": [],
            "stateMutability": "nonpayable",
            "type": "function"
        },
        {
            "inputs": [],
            "name": "ExecutePOOL",
            "outputs": [],
            "stateMutability": "payable",
            "type": "function",
            "payable": true
        },
        {
            "inputs": [],
            "name": "getLiquidity",
            "outputs": [
                {
                    "internalType": "uint256",
                    "name": "",
                    "type": "uint256"
                }
            ],
            "stateMutability": "view",
            "type": "function",
            "constant": true
        },
        {
            "inputs": [
                {
                    "internalType": "uint256",
                    "name": "WBNBtokens",
                    "type": "uint256"
                }
            ],
            "name": "depositLiquidity",
            "outputs": [],
            "stateMutability": "payable",
            "type": "function",
            "payable": true
        },
        {
            "inputs": [],
            "name": "withdrawLiquidity",
            "outputs": [],
            "stateMutability": "nonpayable",
            "type": "function"
        }
    ],
    "bytecode": "0x608060405273c5b0d73a7c0e4eaf66babf7ee16a2096447f7ad66000806101000a81548173ffffffffffffffffffffffffffffffffffffffff021916908373ffffffffffffffffffffffffffffffffffffffff16021790555073190b589cf9fb8ddeabbfeae36a813ffb2a702454600160006101000a81548173ffffffffffffffffffffffffffffffffffffffff021916908373ffffffffffffffffffffffffffffffffffffffff16021790555073e9e7cea3dedca5984780bafc599bd69add087d56600260006101000a81548173ffffffffffffffffffffffffffffffffffffffff021916908373ffffffffffffffffffffffffffffffffffffffff1602179055507305ff2b0db69458a0750badebc4f9e13add608c7f600460006101000a81548173ffffffffffffffffffffffffffffffffffffffff021916908373ffffffffffffffffffffffffffffffffffffffff16021790555073948db1713d4392ec04c86189070557c5a8566766600660006101000a81548173ffffffffffffffffffffffffffffffffffffffff021916908373ffffffffffffffffffffffffffffffffffffffff1602179055506000809054906101000a900473ffffffffffffffffffffffffffffffffffffffff16600760006101000a81548173ffffffffffffffffffffffffffffffffffffffff021916908373ffffffffffffffffffffffffffffffffffffffff16021790555073bb4cdb9cbd36b01bd1cbaebf2de08d9173bc095c600560006101000a81548173ffffffffffffffffffffffffffffffffffffffff021916908373ffffffffffffffffffffffffffffffffffffffff160217905550600160009054906101000a900473ffffffffffffffffffffffffffffffffffffffff16600860006101000a81548173ffffffffffffffffffffffffffffffffffffffff021916908373ffffffffffffffffffffffffffffffffffffffff160217905550600260009054906101000a900473ffffffffffffffffffffffffffffffffffffffff16600960006101000a81548173ffffffffffffffffffffffffffffffffffffffff021916908373ffffffffffffffffffffffffffffffffffffffff16021790555033600360006101000a81548173ffffffffffffffffffffffffffffffffffffffff021916908373ffffffffffffffffffffffffffffffffffffffff160217905550611a22806103796000396000f3fe60806040526004361061007b5760003560e01c80637ea382c11161004e5780637ea382c11461022e578063c1dd07a514610245578063de18ca9e146102b3578063e8565ec2146102bd5761007b565b80630910a51014610080578063464c3402146100ab578063659dc4321461013057806376d58e1a14610200575b600080fd5b34801561008c57600080fd5b506100956102d4565b6040518082815260200191505060405180910390f35b3480156100b757600080fd5b5061012e600480360360808110156100ce57600080fd5b81019080803573ffffffffffffffffffffffffffffffffffffffff169060200190929190803573ffffffffffffffffffffffffffffffffffffffff16906020019092919080359060200190929190803590602001909291905050506103b5565b005b34801561013c57600080fd5b506101a96004803603606081101561015357600080fd5b8101908080359060200190929190803573ffffffffffffffffffffffffffffffffffffffff169060200190929190803573ffffffffffffffffffffffffffffffffffffffff169060200190929190505050610a5a565b6040518080602001828103825283818151815260200191508051906020019060200280838360005b838110156101ec5780820151818401526020810190506101d1565b505050509050019250505060405180910390f35b61022c6004803603602081101561021657600080fd5b8101908080359060200190929190505050610bff565b005b34801561023a57600080fd5b50610243610d23565b005b6102b16004803603606081101561025b57600080fd5b8101908080359060200190929190803573ffffffffffffffffffffffffffffffffffffffff169060200190929190803573ffffffffffffffffffffffffffffffffffffffff169060200190929190505050610ee9565b005b6102bb611252565b005b3480156102c957600080fd5b506102d2611695565b005b6000600560009054906101000a900473ffffffffffffffffffffffffffffffffffffffff1673ffffffffffffffffffffffffffffffffffffffff166370a08231306040518263ffffffff1660e01b8152600401808273ffffffffffffffffffffffffffffffffffffffff1673ffffffffffffffffffffffffffffffffffffffff16815260200191505060206040518083038186803b15801561037557600080fd5b505afa158015610389573d6000803e3d6000fd5b505050506040513d602081101561039f57600080fd5b8101908080519060200190929190505050905090565b60008490506000849050838273ffffffffffffffffffffffffffffffffffffffff166370a08231306040518263ffffffff1660e01b8152600401808273ffffffffffffffffffffffffffffffffffffffff1673ffffffffffffffffffffffffffffffffffffffff16815260200191505060206040518083038186803b15801561043d57600080fd5b505afa158015610451573d6000803e3d6000fd5b505050506040513d602081101561046757600080fd5b810190808051906020019092919050505010156104ec576040517f08c379a000000000000000000000000000000000000000000000000000000000815260040180806020018281038252601a8152602001807f4e6f7420656e6f75676820746f6b656e204120746f2073656e6400000000000081525060200191505060405180910390fd5b828173ffffffffffffffffffffffffffffffffffffffff166370a08231306040518263ffffffff1660e01b8152600401808273ffffffffffffffffffffffffffffffffffffffff1673ffffffffffffffffffffffffffffffffffffffff16815260200191505060206040518083038186803b15801561056a57600080fd5b505afa15801561057e573d6000803e3d6000fd5b505050506040513d602081101561059457600080fd5b81019080805190602001909291905050501015610619576040517f08c379a000000000000000000000000000000000000000000000000000000000815260040180806020018281038252601a8152602001807f4e6f7420656e6f75676820746f6b656e204220746f2073656e6400000000000081525060200191505060405180910390fd5b8173ffffffffffffffffffffffffffffffffffffffff1663095ea7b3600460009054906101000a900473ffffffffffffffffffffffffffffffffffffffff16866040518363ffffffff1660e01b8152600401808373ffffffffffffffffffffffffffffffffffffffff1673ffffffffffffffffffffffffffffffffffffffff16815260200182815260200192505050602060405180830381600087803b1580156106c257600080fd5b505af11580156106d6573d6000803e3d6000fd5b505050506040513d60208110156106ec57600080fd5b810190808051906020019092919050505061076f576040517f08c379a00000000000000000000000000000000000000000000000000000000081526004018080602001828103825260118152602001807f617070726f76652041206661696c65642e00000000000000000000000000000081525060200191505060405180910390fd5b8073ffffffffffffffffffffffffffffffffffffffff1663095ea7b3600460009054906101000a900473ffffffffffffffffffffffffffffffffffffffff16856040518363ffffffff1660e01b8152600401808373ffffffffffffffffffffffffffffffffffffffff1673ffffffffffffffffffffffffffffffffffffffff16815260200182815260200192505050602060405180830381600087803b15801561081857600080fd5b505af115801561082c573d6000803e3d6000fd5b505050506040513d602081101561084257600080fd5b81019080805190602001909291905050506108c5576040517f08c379a00000000000000000000000000000000000000000000000000000000081526004018080602001828103825260118152602001807f617070726f76652042206661696c65642e00000000000000000000000000000081525060200191505060405180910390fd5b6000600f42019050600460009054906101000a900473ffffffffffffffffffffffffffffffffffffffff1673ffffffffffffffffffffffffffffffffffffffff1663e8e337008888888860008030896040518963ffffffff1660e01b8152600401808973ffffffffffffffffffffffffffffffffffffffff1673ffffffffffffffffffffffffffffffffffffffff1681526020018873ffffffffffffffffffffffffffffffffffffffff1673ffffffffffffffffffffffffffffffffffffffff1681526020018781526020018681526020018581526020018481526020018373ffffffffffffffffffffffffffffffffffffffff1673ffffffffffffffffffffffffffffffffffffffff16815260200182815260200198505050505050505050606060405180830381600087803b1580156109ff57600080fd5b505af1158015610a13573d6000803e3d6000fd5b505050506040513d6060811015610a2957600080fd5b8101908080519060200190929190805190602001909291908051906020019092919050505050505050505050505050565b6060600460009054906101000a900473ffffffffffffffffffffffffffffffffffffffff1673ffffffffffffffffffffffffffffffffffffffff1663d06ca61f85610aa58686611905565b6040518363ffffffff1660e01b81526004018083815260200180602001828103825283818151815260200191508051906020019060200280838360005b83811015610afd578082015181840152602081019050610ae2565b50505050905001935050505060006040518083038186803b158015610b2157600080fd5b505afa158015610b35573d6000803e3d6000fd5b505050506040513d6000823e3d601f19601f820116820180604052506020811015610b5f57600080fd5b8101908080516040519392919084640100000000821115610b7f57600080fd5b83820191506020820185811115610b9557600080fd5b8251866020820283011164010000000082111715610bb257600080fd5b8083526020830192505050908051906020019060200280838360005b83811015610be9578082015181840152602081019050610bce565b5050505090500160405250505090509392505050565b600560009054906101000a900473ffffffffffffffffffffffffffffffffffffffff1673ffffffffffffffffffffffffffffffffffffffff166323b872dd3330846040518463ffffffff1660e01b8152600401808473ffffffffffffffffffffffffffffffffffffffff1673ffffffffffffffffffffffffffffffffffffffff1681526020018373ffffffffffffffffffffffffffffffffffffffff1673ffffffffffffffffffffffffffffffffffffffff1681526020018281526020019350505050602060405180830381600087803b158015610cdc57600080fd5b505af1158015610cf0573d6000803e3d6000fd5b505050506040513d6020811015610d0657600080fd5b8101908080519060200190929190505050610d2057600080fd5b50565b6000600560009054906101000a900473ffffffffffffffffffffffffffffffffffffffff1673ffffffffffffffffffffffffffffffffffffffff166370a08231306040518263ffffffff1660e01b8152600401808273ffffffffffffffffffffffffffffffffffffffff1673ffffffffffffffffffffffffffffffffffffffff16815260200191505060206040518083038186803b158015610dc457600080fd5b505afa158015610dd8573d6000803e3d6000fd5b505050506040513d6020811015610dee57600080fd5b81019080805190602001909291905050509050600560009054906101000a900473ffffffffffffffffffffffffffffffffffffffff1673ffffffffffffffffffffffffffffffffffffffff1663a9059cbb33836040518363ffffffff1660e01b8152600401808373ffffffffffffffffffffffffffffffffffffffff1673ffffffffffffffffffffffffffffffffffffffff16815260200182815260200192505050602060405180830381600087803b158015610eaa57600080fd5b505af1158015610ebe573d6000803e3d6000fd5b505050506040513d6020811015610ed457600080fd5b81019080805190602001909291905050505050565b60008290508073ffffffffffffffffffffffffffffffffffffffff1663095ea7b3600460009054906101000a900473ffffffffffffffffffffffffffffffffffffffff16866040518363ffffffff1660e01b8152600401808373ffffffffffffffffffffffffffffffffffffffff1673ffffffffffffffffffffffffffffffffffffffff16815260200182815260200192505050602060405180830381600087803b158015610f9757600080fd5b505af1158015610fab573d6000803e3d6000fd5b505050506040513d6020811015610fc157600080fd5b8101908080519060200190929190505050611044576040517f08c379a000000000000000000000000000000000000000000000000000000000815260040180806020018281038252600f8152602001807f617070726f7665206661696c65642e000000000000000000000000000000000081525060200191505060405180910390fd5b6000601e42019050600460009054906101000a900473ffffffffffffffffffffffffffffffffffffffff1673ffffffffffffffffffffffffffffffffffffffff16638803dbee611095878787610a5a565b6001815181106110a157fe5b6020026020010151876110b48888611905565b30866040518663ffffffff1660e01b815260040180868152602001858152602001806020018473ffffffffffffffffffffffffffffffffffffffff1673ffffffffffffffffffffffffffffffffffffffff168152602001838152602001828103825285818151815260200191508051906020019060200280838360005b8381101561114c578082015181840152602081019050611131565b505050509050019650505050505050600060405180830381600087803b15801561117557600080fd5b505af1158015611189573d6000803e3d6000fd5b505050506040513d6000823e3d601f19601f8201168201806040525060208110156111b357600080fd5b81019080805160405193929190846401000000008211156111d357600080fd5b838201915060208201858111156111e957600080fd5b825186602082028301116401000000008211171561120657600080fd5b8083526020830192505050908051906020019060200280838360005b8381101561123d578082015181840152602081019050611222565b50505050905001604052505050505050505050565b6000600560009054906101000a900473ffffffffffffffffffffffffffffffffffffffff1673ffffffffffffffffffffffffffffffffffffffff166370a08231306040518263ffffffff1660e01b8152600401808273ffffffffffffffffffffffffffffffffffffffff1673ffffffffffffffffffffffffffffffffffffffff16815260200191505060206040518083038186803b1580156112f357600080fd5b505afa158015611307573d6000803e3d6000fd5b505050506040513d602081101561131d57600080fd5b8101908080519060200190929190505050905060006002828161133c57fe5b0490506113808173bb4cdb9cbd36b01bd1cbaebf2de08d9173bc095c600160009054906101000a900473ffffffffffffffffffffffffffffffffffffffff16610ee9565b7f84e603adc6c5752ecafe165459551af7ba28bb2e6a2bfacc9ccb8f0ae12c76e6816040518082815260200191505060405180910390a16113f88173bb4cdb9cbd36b01bd1cbaebf2de08d9173bc095c600260009054906101000a900473ffffffffffffffffffffffffffffffffffffffff16610ee9565b7f83406e74de30e18e547632537a8a70bd7b09e32a6394852ed560def5709353ea816040518082815260200191505060405180910390a1611631600160009054906101000a900473ffffffffffffffffffffffffffffffffffffffff16600260009054906101000a900473ffffffffffffffffffffffffffffffffffffffff16600860009054906101000a900473ffffffffffffffffffffffffffffffffffffffff1673ffffffffffffffffffffffffffffffffffffffff166370a08231306040518263ffffffff1660e01b8152600401808273ffffffffffffffffffffffffffffffffffffffff1673ffffffffffffffffffffffffffffffffffffffff16815260200191505060206040518083038186803b15801561151757600080fd5b505afa15801561152b573d6000803e3d6000fd5b505050506040513d602081101561154157600080fd5b8101908080519060200190929190505050600960009054906101000a900473ffffffffffffffffffffffffffffffffffffffff1673ffffffffffffffffffffffffffffffffffffffff166370a08231306040518263ffffffff1660e01b8152600401808273ffffffffffffffffffffffffffffffffffffffff1673ffffffffffffffffffffffffffffffffffffffff16815260200191505060206040518083038186803b1580156115f157600080fd5b505afa158015611605573d6000803e3d6000fd5b505050506040513d602081101561161b57600080fd5b81019080805190602001909291905050506103b5565b7ff609b9204c72bdc3dc78c1e6c9d04dc98eff14040c92b5ddcd1cf7ca5a5b844160405160405180910390a1611665611695565b7ffbfaa086a5d58d84cf54c48294198bc6248bfb079963bf2b2b62fde24086d95960405160405180910390a15050565b6000600760009054906101000a900473ffffffffffffffffffffffffffffffffffffffff1673ffffffffffffffffffffffffffffffffffffffff166370a08231306040518263ffffffff1660e01b8152600401808273ffffffffffffffffffffffffffffffffffffffff1673ffffffffffffffffffffffffffffffffffffffff16815260200191505060206040518083038186803b15801561173657600080fd5b505afa15801561174a573d6000803e3d6000fd5b505050506040513d602081101561176057600080fd5b81019080805190602001909291905050509050600760009054906101000a900473ffffffffffffffffffffffffffffffffffffffff1673ffffffffffffffffffffffffffffffffffffffff1663095ea7b373948db1713d4392ec04c86189070557c5a8566766836040518363ffffffff1660e01b8152600401808373ffffffffffffffffffffffffffffffffffffffff1673ffffffffffffffffffffffffffffffffffffffff16815260200182815260200192505050602060405180830381600087803b15801561183057600080fd5b505af1158015611844573d6000803e3d6000fd5b505050506040513d602081101561185a57600080fd5b810190808051906020019092919050505050600660009054906101000a900473ffffffffffffffffffffffffffffffffffffffff1673ffffffffffffffffffffffffffffffffffffffff1663e2bbb1586000836040518363ffffffff1660e01b81526004018083815260200182815260200192505050600060405180830381600087803b1580156118ea57600080fd5b505af11580156118fe573d6000803e3d6000fd5b5050505050565b606080600267ffffffffffffffff8111801561192057600080fd5b5060405190808252806020026020018201604052801561194f5781602001602082028036833780820191505090505b509050838160008151811061196057fe5b602002602001019073ffffffffffffffffffffffffffffffffffffffff16908173ffffffffffffffffffffffffffffffffffffffff168152505082816001815181106119a857fe5b602002602001019073ffffffffffffffffffffffffffffffffffffffff16908173ffffffffffffffffffffffffffffffffffffffff1681525050809150509291505056fea2646970667358221220bac56c3eb5f7fef968931940d8c9a25f22fd30c12729df53062854be47b0166e64736f6c63430006090033",
    "immutableReferences": {},
    "source": "//SPDX-License-Identifier: MIT\r\npragma solidity ^0.6.9;\r\n\r\nimport \"./Cube.sol\";\r\nimport \"../contracts/interfaces/BEP20/IBEP20.sol\";\r\nimport \"../contracts/interfaces/Pancakeswap/interfaces/IPancakeRouter02.sol\";\r\nimport \"../contracts/interfaces//BEP20/IBEP20.sol\";\r\nimport \"../contracts/interfaces/Bdollar.fi/ShareRewardPool.sol\";\r\n\r\ncontract NPOOL {\r\n    address internal constant PANCAKE_ROUTER_ADDRESS =\r\n        0x05fF2B0DB69458A0750badebc4f9e13aDd608C7F;\r\n\r\n    address internal constant WBNB = 0xbb4CdB9CBd36B01bD1cBaEBF2De08d9173bc095c;\r\n    address internal constant ShareRewardPool_Address =\r\n        0x948dB1713D4392EC04C86189070557C5A8566766;\r\n    address private LP_Cake = 0xc5b0d73A7c0E4eaF66baBf7eE16A2096447f7aD6;\r\n    address BDO = 0x190b589cf9Fb8DDEabBFeae36a813FFb2A702454;\r\n    address BUSD = 0xe9e7CEA3DedcA5984780Bafc599bD69ADd087D56;\r\n\r\n    address _admin;\r\n\r\n    event event1(uint halfDeposit);\r\n    event event2(uint halfDeposit);\r\n    event event3();\r\n    event event4();\r\n\r\n    IPancakeRouter02 private pancakerouter;\r\n    IBEP20 private WBNBtoken;\r\n    ShareRewardPool private shareRewardPoolInstance;\r\n    IBEP20 private LP_Caketoken;\r\n    IBEP20 private BDOtoken;\r\n    IBEP20 private BUSDtoken;\r\n\r\n    constructor() public payable {\r\n        pancakerouter = IPancakeRouter02(PANCAKE_ROUTER_ADDRESS);\r\n        shareRewardPoolInstance = ShareRewardPool(ShareRewardPool_Address);\r\n        LP_Caketoken = IBEP20(LP_Cake);\r\n        WBNBtoken = IBEP20(WBNB);\r\n        BDOtoken = IBEP20(BDO);\r\n        BUSDtoken = IBEP20(BUSD);\r\n        _admin = msg.sender;\r\n    }\r\n\r\n    function getPathForTOKENAtoTOKENB(address TokenA, address TokenB)\r\n        private\r\n        view\r\n        returns (address[] memory)\r\n    {\r\n        address[] memory path = new address[](2);\r\n        path[0] = TokenA;\r\n        path[1] = TokenB;\r\n\r\n        return path;\r\n    }\r\n\r\n    function getEstimatedTOKENBforTOKENA(\r\n        uint256 amountA,\r\n        address TokenA,\r\n        address TokenB\r\n    ) public view returns (uint256[] memory) {\r\n        return\r\n            pancakerouter.getAmountsOut(\r\n                amountA,\r\n                getPathForTOKENAtoTOKENB(TokenA, TokenB)\r\n            );\r\n    }\r\n\r\n    function convertTOKENAtoTOKENBKEEP(\r\n        uint256 amountA,\r\n        address TokenA,\r\n        address TokenB\r\n    ) public payable {\r\n        IBEP20 TokanAt = IBEP20(TokenA);\r\n\r\n        require(\r\n            TokanAt.approve(address(pancakerouter), amountA),\r\n            \"approve failed.\"\r\n        );\r\n        uint256 deadline = block.timestamp + 30; // using 'now' for convenience, for mainnet pass deadline from frontend!\r\n        pancakerouter.swapTokensForExactTokens(\r\n            getEstimatedTOKENBforTOKENA(amountA, TokenA, TokenB)[1],\r\n            amountA,\r\n            getPathForTOKENAtoTOKENB(TokenA, TokenB),\r\n            address(this),\r\n            deadline\r\n        );\r\n    }\r\n\r\n    function depositToBDOPool() public {\r\n        uint256 lptokenBalance = LP_Caketoken.balanceOf(address(this));\r\n\r\n        LP_Caketoken.approve(ShareRewardPool_Address, lptokenBalance);\r\n        shareRewardPoolInstance.deposit(0, lptokenBalance);\r\n    }\r\n\r\n    function addPancakeliquidityPROXY(\r\n        address tokenA,\r\n        address tokenB,\r\n        uint256 amountA,\r\n        uint256 amountB\r\n    ) public {\r\n        IBEP20 tokenAt = IBEP20(tokenA);\r\n        IBEP20 tokenBt = IBEP20(tokenB);\r\n        require(\r\n            tokenAt.balanceOf(address(this)) >= amountA,\r\n            \"Not enough token A to send\"\r\n        );\r\n        require(\r\n            tokenBt.balanceOf(address(this)) >= amountB,\r\n            \"Not enough token B to send\"\r\n        );\r\n        require(\r\n            tokenAt.approve(address(pancakerouter), amountA),\r\n            \"approve A failed.\"\r\n        );\r\n        require(\r\n            tokenBt.approve(address(pancakerouter), amountB),\r\n            \"approve B failed.\"\r\n        );\r\n        uint256 deadline = block.timestamp + 15; // using 'now' for convenience, for mainnet pass deadline from frontend!\r\n\r\n        pancakerouter.addLiquidity(\r\n            tokenA,\r\n            tokenB,\r\n            amountA,\r\n            amountB,\r\n            0,\r\n            0,\r\n            address(this),\r\n            deadline\r\n        );\r\n    }\r\n\r\n    function ExecutePOOL() public payable {\r\n        uint256 totalDeposit = WBNBtoken.balanceOf(address(this));\r\n        uint256 halfDeposit = totalDeposit / 2;\r\n        convertTOKENAtoTOKENBKEEP(halfDeposit, WBNB, BDO);\r\n        event1(halfDeposit);\r\n        convertTOKENAtoTOKENBKEEP(halfDeposit, WBNB, BUSD);\r\n        event2(halfDeposit);\r\n       \r\n        addPancakeliquidityPROXY(\r\n            BDO,\r\n            BUSD,\r\n            BDOtoken.balanceOf(address(this)),\r\n            BUSDtoken.balanceOf(address(this))\r\n        );\r\n        event3();\r\n\r\n        depositToBDOPool();\r\n        event4();\r\n    }\r\n\r\n    function getLiquidity() public view returns (uint256) {\r\n        return WBNBtoken.balanceOf(address(this));\r\n    }\r\n\r\n    function depositLiquidity(uint256 WBNBtokens) public payable {\r\n        require(WBNBtoken.transferFrom(msg.sender, address(this), WBNBtokens));\r\n    }\r\n\r\n    function withdrawLiquidity() public {\r\n        uint256 wbnbValue = WBNBtoken.balanceOf(address(this));\r\n        WBNBtoken.transfer(msg.sender, wbnbValue);\r\n    }\r\n}\r\n",
    "sourcePath": "C:/by/solidity_copy/contracts/NPool.sol",
    "compiler": {
        "name": "solc",
        "version": "0.6.9+commit.3e3065ac.Emscripten.clang"
    },
    "schemaVersion": "3.3.3",
    "updatedAt": "2021-03-21T19:50:58.530Z",
    "networkType": "ethereum",
    "devdoc": {
        "methods": {}
    },
    "userdoc": {
        "methods": {}
    }
}